{
  "_format": "hh-sol-artifact-1",
  "contractName": "AccessRestriction",
  "sourceName": "contracts/accessRestriction/AccessRestriction.sol",
  "abi": [
    {
      "inputs": [
        {
          "internalType": "address",
          "name": "_script",
          "type": "address"
        }
      ],
      "stateMutability": "nonpayable",
      "type": "constructor"
    },
    {
      "inputs": [],
      "name": "AccessControlBadConfirmation",
      "type": "error"
    },
    {
      "inputs": [
        {
          "internalType": "address",
          "name": "account",
          "type": "address"
        },
        {
          "internalType": "bytes32",
          "name": "neededRole",
          "type": "bytes32"
        }
      ],
      "name": "AccessControlUnauthorizedAccount",
      "type": "error"
    },
    {
      "anonymous": false,
      "inputs": [
        {
          "indexed": true,
          "internalType": "bytes32",
          "name": "role",
          "type": "bytes32"
        },
        {
          "indexed": true,
          "internalType": "bytes32",
          "name": "previousAdminRole",
          "type": "bytes32"
        },
        {
          "indexed": true,
          "internalType": "bytes32",
          "name": "newAdminRole",
          "type": "bytes32"
        }
      ],
      "name": "RoleAdminChanged",
      "type": "event"
    },
    {
      "anonymous": false,
      "inputs": [
        {
          "indexed": true,
          "internalType": "bytes32",
          "name": "role",
          "type": "bytes32"
        },
        {
          "indexed": true,
          "internalType": "address",
          "name": "account",
          "type": "address"
        },
        {
          "indexed": true,
          "internalType": "address",
          "name": "sender",
          "type": "address"
        }
      ],
      "name": "RoleGranted",
      "type": "event"
    },
    {
      "anonymous": false,
      "inputs": [
        {
          "indexed": true,
          "internalType": "bytes32",
          "name": "role",
          "type": "bytes32"
        },
        {
          "indexed": true,
          "internalType": "address",
          "name": "account",
          "type": "address"
        },
        {
          "indexed": true,
          "internalType": "address",
          "name": "sender",
          "type": "address"
        }
      ],
      "name": "RoleRevoked",
      "type": "event"
    },
    {
      "inputs": [],
      "name": "DEFAULT_ADMIN_ROLE",
      "outputs": [
        {
          "internalType": "bytes32",
          "name": "",
          "type": "bytes32"
        }
      ],
      "stateMutability": "view",
      "type": "function"
    },
    {
      "inputs": [],
      "name": "SCRIPT_ROLE",
      "outputs": [
        {
          "internalType": "bytes32",
          "name": "",
          "type": "bytes32"
        }
      ],
      "stateMutability": "view",
      "type": "function"
    },
    {
      "inputs": [],
      "name": "USER_ROLE",
      "outputs": [
        {
          "internalType": "bytes32",
          "name": "",
          "type": "bytes32"
        }
      ],
      "stateMutability": "view",
      "type": "function"
    },
    {
      "inputs": [
        {
          "internalType": "bytes32",
          "name": "role",
          "type": "bytes32"
        }
      ],
      "name": "getRoleAdmin",
      "outputs": [
        {
          "internalType": "bytes32",
          "name": "",
          "type": "bytes32"
        }
      ],
      "stateMutability": "view",
      "type": "function"
    },
    {
      "inputs": [
        {
          "internalType": "address",
          "name": "_to",
          "type": "address"
        }
      ],
      "name": "giveUserRole",
      "outputs": [],
      "stateMutability": "nonpayable",
      "type": "function"
    },
    {
      "inputs": [
        {
          "internalType": "bytes32",
          "name": "role",
          "type": "bytes32"
        },
        {
          "internalType": "address",
          "name": "account",
          "type": "address"
        }
      ],
      "name": "grantRole",
      "outputs": [],
      "stateMutability": "nonpayable",
      "type": "function"
    },
    {
      "inputs": [
        {
          "internalType": "bytes32",
          "name": "role",
          "type": "bytes32"
        },
        {
          "internalType": "address",
          "name": "account",
          "type": "address"
        }
      ],
      "name": "hasRole",
      "outputs": [
        {
          "internalType": "bool",
          "name": "",
          "type": "bool"
        }
      ],
      "stateMutability": "view",
      "type": "function"
    },
    {
      "inputs": [
        {
          "internalType": "address",
          "name": "_account",
          "type": "address"
        }
      ],
      "name": "isScript",
      "outputs": [
        {
          "internalType": "bool",
          "name": "",
          "type": "bool"
        }
      ],
      "stateMutability": "view",
      "type": "function"
    },
    {
      "inputs": [
        {
          "internalType": "bytes32",
          "name": "role",
          "type": "bytes32"
        },
        {
          "internalType": "address",
          "name": "callerConfirmation",
          "type": "address"
        }
      ],
      "name": "renounceRole",
      "outputs": [],
      "stateMutability": "nonpayable",
      "type": "function"
    },
    {
      "inputs": [
        {
          "internalType": "bytes32",
          "name": "role",
          "type": "bytes32"
        },
        {
          "internalType": "address",
          "name": "account",
          "type": "address"
        }
      ],
      "name": "revokeRole",
      "outputs": [],
      "stateMutability": "nonpayable",
      "type": "function"
    },
    {
      "inputs": [
        {
          "internalType": "bytes4",
          "name": "interfaceId",
          "type": "bytes4"
        }
      ],
      "name": "supportsInterface",
      "outputs": [
        {
          "internalType": "bool",
          "name": "",
          "type": "bool"
        }
      ],
      "stateMutability": "view",
      "type": "function"
    }
  ],
  "bytecode": "0x608060405234801561001057600080fd5b506040516106b23803806106b283398101604081905261002f9161010c565b6100597fb6675f0d6e01a856758b044a0f611a8c67352d8e97171e22a568002988bd07ae82610060565b505061013c565b6000828152602081815260408083206001600160a01b038516845290915281205460ff16610102576000838152602081815260408083206001600160a01b03861684529091529020805460ff191660011790556100ba3390565b6001600160a01b0316826001600160a01b0316847f2f8788117e7eff1d82e926ec794901d17c78024a50270940304540a733656f0d60405160405180910390a4506001610106565b5060005b92915050565b60006020828403121561011e57600080fd5b81516001600160a01b038116811461013557600080fd5b9392505050565b6105678061014b6000396000f3fe608060405234801561001057600080fd5b50600436106100a95760003560e01c80636a8c26a5116100715780636a8c26a51461015657806391d1485414610169578063a217fddf1461017c578063d547741f14610184578063d78b27b114610197578063e2cb18d6146101aa57600080fd5b806301ffc9a7146100ae57806313119161146100d6578063248a9ca31461010b5780632f2ff15d1461012e57806336568abe14610143575b600080fd5b6100c16100bc366004610484565b6101d1565b60405190151581526020015b60405180910390f35b6100fd7f2db9fd3d099848027c2383d0a083396f6c41510d7acfd92adc99b6cffcf31e9681565b6040519081526020016100cd565b6100fd6101193660046104b5565b60009081526020819052604090206001015490565b61014161013c3660046104ea565b610208565b005b6101416101513660046104ea565b610233565b610141610164366004610516565b61026b565b6100c16101773660046104ea565b6102bf565b6100fd600081565b6101416101923660046104ea565b6102e8565b6100c16101a5366004610516565b61030d565b6100fd7fb6675f0d6e01a856758b044a0f611a8c67352d8e97171e22a568002988bd07ae81565b60006001600160e01b03198216637965db0b60e01b148061020257506301ffc9a760e01b6001600160e01b03198316145b92915050565b60008281526020819052604090206001015461022381610339565b61022d8383610346565b50505050565b6001600160a01b038116331461025c5760405163334bd91960e11b815260040160405180910390fd5b61026682826103d8565b505050565b7fb6675f0d6e01a856758b044a0f611a8c67352d8e97171e22a568002988bd07ae61029581610339565b6102667f2db9fd3d099848027c2383d0a083396f6c41510d7acfd92adc99b6cffcf31e9683610346565b6000918252602082815260408084206001600160a01b0393909316845291905290205460ff1690565b60008281526020819052604090206001015461030381610339565b61022d83836103d8565b60006102027fb6675f0d6e01a856758b044a0f611a8c67352d8e97171e22a568002988bd07ae836102bf565b6103438133610443565b50565b600061035283836102bf565b6103d0576000838152602081815260408083206001600160a01b03861684529091529020805460ff191660011790556103883390565b6001600160a01b0316826001600160a01b0316847f2f8788117e7eff1d82e926ec794901d17c78024a50270940304540a733656f0d60405160405180910390a4506001610202565b506000610202565b60006103e483836102bf565b156103d0576000838152602081815260408083206001600160a01b0386168085529252808320805460ff1916905551339286917ff6391f5c32d9c69d2a47ea670b442974b53935d1edc7fd64eb21e047a839171b9190a4506001610202565b61044d82826102bf565b6104805760405163e2517d3f60e01b81526001600160a01b03821660048201526024810183905260440160405180910390fd5b5050565b60006020828403121561049657600080fd5b81356001600160e01b0319811681146104ae57600080fd5b9392505050565b6000602082840312156104c757600080fd5b5035919050565b80356001600160a01b03811681146104e557600080fd5b919050565b600080604083850312156104fd57600080fd5b8235915061050d602084016104ce565b90509250929050565b60006020828403121561052857600080fd5b6104ae826104ce56fea26469706673582212202c6ec468d5804ca49f6e30adc8b3e07105356526947e067b245a770032dcfab064736f6c63430008140033",
  "linkReferences": {},
  "deployedLinkReferences": {}
}