{
  "_format": "hh-sol-artifact-1",
  "contractName": "Rate",
  "sourceName": "contracts/rate/Rate.sol",
  "abi": [
    {
      "inputs": [
        {
          "internalType": "address",
          "name": "_address",
          "type": "address"
        }
      ],
      "stateMutability": "nonpayable",
      "type": "constructor"
    },
    {
      "anonymous": false,
      "inputs": [
        {
          "indexed": false,
          "internalType": "address",
          "name": "service",
          "type": "address"
        },
        {
          "indexed": false,
          "internalType": "address",
          "name": "prevSubmitter",
          "type": "address"
        },
        {
          "indexed": false,
          "internalType": "address",
          "name": "submitter",
          "type": "address"
        },
        {
          "indexed": false,
          "internalType": "string",
          "name": "info",
          "type": "string"
        }
      ],
      "name": "FeedbackOnFeedbackSubmited",
      "type": "event"
    },
    {
      "anonymous": false,
      "inputs": [
        {
          "indexed": false,
          "internalType": "address",
          "name": "service",
          "type": "address"
        },
        {
          "indexed": false,
          "internalType": "address",
          "name": "submitter",
          "type": "address"
        },
        {
          "indexed": false,
          "internalType": "string",
          "name": "info",
          "type": "string"
        }
      ],
      "name": "FeedbackSubmited",
      "type": "event"
    },
    {
      "anonymous": false,
      "inputs": [
        {
          "indexed": false,
          "internalType": "address",
          "name": "service",
          "type": "address"
        },
        {
          "indexed": false,
          "internalType": "address",
          "name": "submitter",
          "type": "address"
        },
        {
          "indexed": false,
          "internalType": "string",
          "name": "info",
          "type": "string"
        }
      ],
      "name": "ServiceAdded",
      "type": "event"
    },
    {
      "inputs": [],
      "name": "ADD_SERVICE_TYPE_HASH",
      "outputs": [
        {
          "internalType": "bytes32",
          "name": "",
          "type": "bytes32"
        }
      ],
      "stateMutability": "view",
      "type": "function"
    },
    {
      "inputs": [],
      "name": "FEEDBACK_ON_FEEDBACK_TYPE_HASH",
      "outputs": [
        {
          "internalType": "bytes32",
          "name": "",
          "type": "bytes32"
        }
      ],
      "stateMutability": "view",
      "type": "function"
    },
    {
      "inputs": [],
      "name": "FEEDBACK_TYPE_HASH",
      "outputs": [
        {
          "internalType": "bytes32",
          "name": "",
          "type": "bytes32"
        }
      ],
      "stateMutability": "view",
      "type": "function"
    },
    {
      "inputs": [],
      "name": "accessRestriction",
      "outputs": [
        {
          "internalType": "contract IAccessRestriction",
          "name": "",
          "type": "address"
        }
      ],
      "stateMutability": "view",
      "type": "function"
    },
    {
      "inputs": [
        {
          "internalType": "uint256",
          "name": "_nonce",
          "type": "uint256"
        },
        {
          "internalType": "address",
          "name": "_submitter",
          "type": "address"
        },
        {
          "internalType": "address",
          "name": "_service",
          "type": "address"
        },
        {
          "internalType": "string",
          "name": "_infoHash",
          "type": "string"
        },
        {
          "internalType": "uint8",
          "name": "_v",
          "type": "uint8"
        },
        {
          "internalType": "bytes32",
          "name": "_r",
          "type": "bytes32"
        },
        {
          "internalType": "bytes32",
          "name": "_s",
          "type": "bytes32"
        }
      ],
      "name": "addService",
      "outputs": [],
      "stateMutability": "nonpayable",
      "type": "function"
    },
    {
      "inputs": [
        {
          "internalType": "address",
          "name": "",
          "type": "address"
        },
        {
          "internalType": "address",
          "name": "",
          "type": "address"
        },
        {
          "internalType": "address",
          "name": "",
          "type": "address"
        }
      ],
      "name": "feedbackFeedbacks",
      "outputs": [
        {
          "internalType": "string",
          "name": "info",
          "type": "string"
        },
        {
          "internalType": "bool",
          "name": "exists",
          "type": "bool"
        }
      ],
      "stateMutability": "view",
      "type": "function"
    },
    {
      "inputs": [
        {
          "internalType": "address",
          "name": "",
          "type": "address"
        }
      ],
      "name": "feedbackNonce",
      "outputs": [
        {
          "internalType": "uint256",
          "name": "",
          "type": "uint256"
        }
      ],
      "stateMutability": "view",
      "type": "function"
    },
    {
      "inputs": [
        {
          "internalType": "address",
          "name": "",
          "type": "address"
        }
      ],
      "name": "feedbackOnfeedbackNonce",
      "outputs": [
        {
          "internalType": "uint256",
          "name": "",
          "type": "uint256"
        }
      ],
      "stateMutability": "view",
      "type": "function"
    },
    {
      "inputs": [
        {
          "internalType": "address",
          "name": "",
          "type": "address"
        },
        {
          "internalType": "address",
          "name": "",
          "type": "address"
        }
      ],
      "name": "serviceFeedbacks",
      "outputs": [
        {
          "internalType": "string",
          "name": "info",
          "type": "string"
        },
        {
          "internalType": "bool",
          "name": "exists",
          "type": "bool"
        }
      ],
      "stateMutability": "view",
      "type": "function"
    },
    {
      "inputs": [
        {
          "internalType": "address",
          "name": "",
          "type": "address"
        }
      ],
      "name": "serviceNonce",
      "outputs": [
        {
          "internalType": "uint256",
          "name": "",
          "type": "uint256"
        }
      ],
      "stateMutability": "view",
      "type": "function"
    },
    {
      "inputs": [
        {
          "internalType": "address",
          "name": "",
          "type": "address"
        }
      ],
      "name": "services",
      "outputs": [
        {
          "internalType": "address",
          "name": "submitter",
          "type": "address"
        },
        {
          "internalType": "string",
          "name": "info",
          "type": "string"
        },
        {
          "internalType": "bool",
          "name": "exists",
          "type": "bool"
        }
      ],
      "stateMutability": "view",
      "type": "function"
    },
    {
      "inputs": [
        {
          "internalType": "uint256",
          "name": "_nonce",
          "type": "uint256"
        },
        {
          "internalType": "address",
          "name": "_prevSubmitter",
          "type": "address"
        },
        {
          "internalType": "address",
          "name": "_submitter",
          "type": "address"
        },
        {
          "internalType": "address",
          "name": "_service",
          "type": "address"
        },
        {
          "internalType": "string",
          "name": "_infoHash",
          "type": "string"
        },
        {
          "internalType": "uint8",
          "name": "_v",
          "type": "uint8"
        },
        {
          "internalType": "bytes32",
          "name": "_r",
          "type": "bytes32"
        },
        {
          "internalType": "bytes32",
          "name": "_s",
          "type": "bytes32"
        }
      ],
      "name": "submitFeedbackToFeedback",
      "outputs": [],
      "stateMutability": "nonpayable",
      "type": "function"
    },
    {
      "inputs": [
        {
          "internalType": "uint256",
          "name": "_nonce",
          "type": "uint256"
        },
        {
          "internalType": "address",
          "name": "_submitter",
          "type": "address"
        },
        {
          "internalType": "address",
          "name": "_service",
          "type": "address"
        },
        {
          "internalType": "string",
          "name": "_infoHash",
          "type": "string"
        },
        {
          "internalType": "uint8",
          "name": "_v",
          "type": "uint8"
        },
        {
          "internalType": "bytes32",
          "name": "_r",
          "type": "bytes32"
        },
        {
          "internalType": "bytes32",
          "name": "_s",
          "type": "bytes32"
        }
      ],
      "name": "submitFeedbackToService",
      "outputs": [],
      "stateMutability": "nonpayable",
      "type": "function"
    }
  ],
  "bytecode": "0x608060405234801561001057600080fd5b5060405161126d38038061126d83398101604081905261002f91610035565b50610065565b60006020828403121561004757600080fd5b81516001600160a01b038116811461005e57600080fd5b9392505050565b6111f9806100746000396000f3fe608060405234801561001057600080fd5b50600436106100cf5760003560e01c80638b7b26a61161008c578063c8ac5fa911610066578063c8ac5fa914610207578063d6762c4a1461021a578063e8e3b17214610245578063feb6e3231461025857600080fd5b80638b7b26a6146101a6578063a942263b146101cd578063b66b1293146101f457600080fd5b806338342401146100d457806349182590146101075780634cc81a4b1461011c5780636d966d011461013d57806371bd89211461015f578063807aaab814610186575b600080fd5b6100f46100e2366004610c75565b60066020526000908152604090205481565b6040519081526020015b60405180910390f35b61011a610115366004610d4b565b610278565b005b61012f61012a366004610de8565b6104c8565b6040516100fe929190610e61565b61015061014b366004610c75565b61057a565b6040516100fe93929190610e85565b6100f47f181b4019243de6343c040c85275c40e8a7910039bc8acef4350308426690f77d81565b6100f4610194366004610c75565b60046020526000908152604090205481565b6100f47fd08d824d17ad31fd1c396ea509c251a9abf46c916dfaaf42e37bf8860b8007c181565b6100f47fd2f09be9fa19fe3a4bf761bb2a98dded2024c76ca5a0e533921c3df140b5442f81565b61011a610202366004610ebb565b610633565b61011a610215366004610ebb565b610854565b60005461022d906001600160a01b031681565b6040516001600160a01b0390911681526020016100fe565b61012f610253366004610f47565b610a58565b6100f4610266366004610c75565b60056020526000908152604090205481565b60005460405163d78b27b160e01b81523360048201819052916001600160a01b03169063d78b27b190602401602060405180830381865afa1580156102c1573d6000803e3d6000fd5b505050506040513d601f19601f820116820180604052508101906102e59190610f8a565b61030a5760405162461bcd60e51b815260040161030190610fac565b60405180910390fd5b6001600160a01b03871660009081526006602052604090205489116103415760405162461bcd60e51b815260040161030190610fdb565b6103c761034c610a84565b8651602080890191909120604080517fd08d824d17ad31fd1c396ea509c251a9abf46c916dfaaf42e37bf8860b8007c19381019390935282018d905260608201526001600160a01b03808c166080830152891660a082015260c0015b6040516020818303038152906040528051906020012089878787610b5a565b6001600160a01b0380881660009081526003602090815260408083208c851684528252808320938a16835292905220600181015460ff16156104475760405162461bcd60e51b815260206004820152601960248201527819995959189858dac8185b1c9958591e481cdd589b5a5d1959603a1b6044820152606401610301565b806104528782611090565b506001818101805460ff191690911790556040517ffeb7cafb1e29335c39af64841d10d9b99e1751cb8ace2e4365184410cee170d8906104999089908c908c908b90611150565b60405180910390a15050506001600160a01b039094166000908152600660205260409020959095555050505050565b60026020908152600092835260408084209091529082529020805481906104ee90611007565b80601f016020809104026020016040519081016040528092919081815260200182805461051a90611007565b80156105675780601f1061053c57610100808354040283529160200191610567565b820191906000526020600020905b81548152906001019060200180831161054a57829003601f168201915b5050506001909301549192505060ff1682565b6001602081905260009182526040909120805491810180546001600160a01b03909316926105a790611007565b80601f01602080910402602001604051908101604052809291908181526020018280546105d390611007565b80156106205780601f106105f557610100808354040283529160200191610620565b820191906000526020600020905b81548152906001019060200180831161060357829003601f168201915b5050506002909301549192505060ff1683565b60005460405163d78b27b160e01b81523360048201819052916001600160a01b03169063d78b27b190602401602060405180830381865afa15801561067c573d6000803e3d6000fd5b505050506040513d601f19601f820116820180604052508101906106a09190610f8a565b6106bc5760405162461bcd60e51b815260040161030190610fac565b6001600160a01b03871660009081526004602052604090205488116106f35760405162461bcd60e51b815260040161030190610fdb565b6107566106fe610a84565b8651602080890191909120604080517f181b4019243de6343c040c85275c40e8a7910039bc8acef4350308426690f77d9381019390935282018c905260608201526001600160a01b038916608082015260a0016103a8565b6001600160a01b0386166000908152600160205260409020600281015460ff16156107c35760405162461bcd60e51b815260206004820152601860248201527f7365727669636520616c7265616479207375626d6974656400000000000000006044820152606401610301565b600181016107d18782611090565b5080546001600160a01b0319166001600160a01b038916908117825560028201805460ff19166001179055600090815260046020526040908190208a9055517f1e4931c3b7f29bcba927c612362300943977993c3090998203a50bbede028446906108419089908b908a9061118e565b60405180910390a1505050505050505050565b60005460405163d78b27b160e01b81523360048201819052916001600160a01b03169063d78b27b190602401602060405180830381865afa15801561089d573d6000803e3d6000fd5b505050506040513d601f19601f820116820180604052508101906108c19190610f8a565b6108dd5760405162461bcd60e51b815260040161030190610fac565b6001600160a01b03871660009081526005602052604090205488116109145760405162461bcd60e51b815260040161030190610fdb565b61097761091f610a84565b8651602080890191909120604080517fd2f09be9fa19fe3a4bf761bb2a98dded2024c76ca5a0e533921c3df140b5442f9381019390935282018c905260608201526001600160a01b038916608082015260a0016103a8565b6001600160a01b038088166000908152600260209081526040808320938a16835292905220600181015460ff16156109ed5760405162461bcd60e51b815260206004820152601960248201527819995959189858dac8185b1c9958591e481cdd589b5a5d1959603a1b6044820152606401610301565b806109f88782611090565b506001818101805460ff191690911790556001600160a01b038816600090815260056020526040908190208a9055517f98ada537dbe87668321d03b1b3bee88d2d1dbe48eedfc21534cd32202b6938ab906108419089908b908a9061118e565b60036020908152600093845260408085208252928452828420905282529020805481906104ee90611007565b604080518082018252600f81526e11195c985d1948141c9bdd1bd8dbdb608a1b6020918201528151808301835260018152603160f81b9082015281517f8b73c3c69bb8fe3d512ecc4cf759cc79239f7b179b0ffacaa9a75d522b39400f818301527f2b03a062a60276a6d883a9d1510648aada0e2b86b3b6f9b048caee67c827cde0818401527fc89efdaa54c0f20c7adf612882df0950f5a951637e0307cdcb4c672f298b8bc660608201524660808201523060a0808301919091528351808303909101815260c0909101909252815191012090565b6040805161190160f01b60208083019190915260228201899052604280830189905283518084039091018152606290920190925280519101206000906040805160008082526020820180845284905260ff88169282019290925260608101869052608081018590529192509060019060a0016020604051602081039080840390855afa158015610bee573d6000803e3d6000fd5b505050602060405103519050856001600160a01b0316816001600160a01b031614610c4f5760405162461bcd60e51b8152602060048201526011602482015270696e76616c6964207369676e617475726560781b6044820152606401610301565b5050505050505050565b80356001600160a01b0381168114610c7057600080fd5b919050565b600060208284031215610c8757600080fd5b610c9082610c59565b9392505050565b634e487b7160e01b600052604160045260246000fd5b600082601f830112610cbe57600080fd5b813567ffffffffffffffff80821115610cd957610cd9610c97565b604051601f8301601f19908116603f01168101908282118183101715610d0157610d01610c97565b81604052838152866020858801011115610d1a57600080fd5b836020870160208301376000602085830101528094505050505092915050565b803560ff81168114610c7057600080fd5b600080600080600080600080610100898b031215610d6857600080fd5b88359750610d7860208a01610c59565b9650610d8660408a01610c59565b9550610d9460608a01610c59565b9450608089013567ffffffffffffffff811115610db057600080fd5b610dbc8b828c01610cad565b945050610dcb60a08a01610d3a565b925060c0890135915060e089013590509295985092959890939650565b60008060408385031215610dfb57600080fd5b610e0483610c59565b9150610e1260208401610c59565b90509250929050565b6000815180845260005b81811015610e4157602081850181015186830182015201610e25565b506000602082860101526020601f19601f83011685010191505092915050565b604081526000610e746040830185610e1b565b905082151560208301529392505050565b6001600160a01b0384168152606060208201819052600090610ea990830185610e1b565b90508215156040830152949350505050565b600080600080600080600060e0888a031215610ed657600080fd5b87359650610ee660208901610c59565b9550610ef460408901610c59565b9450606088013567ffffffffffffffff811115610f1057600080fd5b610f1c8a828b01610cad565b945050610f2b60808901610d3a565b925060a0880135915060c0880135905092959891949750929550565b600080600060608486031215610f5c57600080fd5b610f6584610c59565b9250610f7360208501610c59565b9150610f8160408501610c59565b90509250925092565b600060208284031215610f9c57600080fd5b81518015158114610c9057600080fd5b60208082526015908201527463616c6c6572206973206e6f74207363726970742160581b604082015260600190565b6020808252601290820152711b9bdb98d9481a5cc81a5b98dbdc9c9958dd60721b604082015260600190565b600181811c9082168061101b57607f821691505b60208210810361103b57634e487b7160e01b600052602260045260246000fd5b50919050565b601f82111561108b57600081815260208120601f850160051c810160208610156110685750805b601f850160051c820191505b8181101561108757828155600101611074565b5050505b505050565b815167ffffffffffffffff8111156110aa576110aa610c97565b6110be816110b88454611007565b84611041565b602080601f8311600181146110f357600084156110db5750858301515b600019600386901b1c1916600185901b178555611087565b600085815260208120601f198616915b8281101561112257888601518255948401946001909101908401611103565b50858210156111405787850151600019600388901b60f8161c191681555b5050505050600190811b01905550565b6001600160a01b03858116825284811660208301528316604082015260806060820181905260009061118490830184610e1b565b9695505050505050565b6001600160a01b038481168252831660208201526060604082018190526000906111ba90830184610e1b565b9594505050505056fea26469706673582212209e6db0fad367aaa4ee843ce76eac99d14de824d3deb0aa8f3618edb0ebc483f664736f6c63430008140033",
  "linkReferences": {},
  "deployedLinkReferences": {}
}