{
  "_format": "hh-sol-artifact-1",
  "contractName": "Rate",
  "sourceName": "contracts/rate/Rate.sol",
  "abi": [
    {
      "inputs": [
        {
          "internalType": "address",
          "name": "_address",
          "type": "address"
        }
      ],
      "stateMutability": "nonpayable",
      "type": "constructor"
    },
    {
      "anonymous": false,
      "inputs": [
        {
          "indexed": false,
          "internalType": "address",
          "name": "service",
          "type": "address"
        },
        {
          "indexed": false,
          "internalType": "address",
          "name": "prevSubmitter",
          "type": "address"
        },
        {
          "indexed": false,
          "internalType": "address",
          "name": "submitter",
          "type": "address"
        },
        {
          "indexed": false,
          "internalType": "string",
          "name": "info",
          "type": "string"
        },
        {
          "indexed": false,
          "internalType": "uint256",
          "name": "score",
          "type": "uint256"
        }
      ],
      "name": "FeedbackOnFeedbackSubmited",
      "type": "event"
    },
    {
      "anonymous": false,
      "inputs": [
        {
          "indexed": false,
          "internalType": "address",
          "name": "service",
          "type": "address"
        },
        {
          "indexed": false,
          "internalType": "address",
          "name": "submitter",
          "type": "address"
        },
        {
          "indexed": false,
          "internalType": "string",
          "name": "info",
          "type": "string"
        },
        {
          "indexed": false,
          "internalType": "uint256",
          "name": "score",
          "type": "uint256"
        }
      ],
      "name": "FeedbackSubmited",
      "type": "event"
    },
    {
      "anonymous": false,
      "inputs": [
        {
          "indexed": false,
          "internalType": "address",
          "name": "service",
          "type": "address"
        },
        {
          "indexed": false,
          "internalType": "address",
          "name": "submitter",
          "type": "address"
        },
        {
          "indexed": false,
          "internalType": "string",
          "name": "info",
          "type": "string"
        }
      ],
      "name": "ServiceAdded",
      "type": "event"
    },
    {
      "inputs": [],
      "name": "ADD_SERVICE_TYPE_HASH",
      "outputs": [
        {
          "internalType": "bytes32",
          "name": "",
          "type": "bytes32"
        }
      ],
      "stateMutability": "view",
      "type": "function"
    },
    {
      "inputs": [],
      "name": "FEEDBACK_ON_FEEDBACK_TYPE_HASH",
      "outputs": [
        {
          "internalType": "bytes32",
          "name": "",
          "type": "bytes32"
        }
      ],
      "stateMutability": "view",
      "type": "function"
    },
    {
      "inputs": [],
      "name": "FEEDBACK_TYPE_HASH",
      "outputs": [
        {
          "internalType": "bytes32",
          "name": "",
          "type": "bytes32"
        }
      ],
      "stateMutability": "view",
      "type": "function"
    },
    {
      "inputs": [],
      "name": "accessRestriction",
      "outputs": [
        {
          "internalType": "address",
          "name": "",
          "type": "address"
        }
      ],
      "stateMutability": "view",
      "type": "function"
    },
    {
      "inputs": [
        {
          "internalType": "uint256",
          "name": "_nonce",
          "type": "uint256"
        },
        {
          "internalType": "address",
          "name": "_submitter",
          "type": "address"
        },
        {
          "internalType": "address",
          "name": "_service",
          "type": "address"
        },
        {
          "internalType": "string",
          "name": "_infoHash",
          "type": "string"
        },
        {
          "internalType": "uint8",
          "name": "_v",
          "type": "uint8"
        },
        {
          "internalType": "bytes32",
          "name": "_r",
          "type": "bytes32"
        },
        {
          "internalType": "bytes32",
          "name": "_s",
          "type": "bytes32"
        }
      ],
      "name": "addService",
      "outputs": [],
      "stateMutability": "nonpayable",
      "type": "function"
    },
    {
      "inputs": [
        {
          "components": [
            {
              "internalType": "address",
              "name": "submitter",
              "type": "address"
            },
            {
              "components": [
                {
                  "internalType": "uint256",
                  "name": "nonce",
                  "type": "uint256"
                },
                {
                  "internalType": "address",
                  "name": "service",
                  "type": "address"
                },
                {
                  "internalType": "string",
                  "name": "infoHash",
                  "type": "string"
                },
                {
                  "internalType": "uint8",
                  "name": "v",
                  "type": "uint8"
                },
                {
                  "internalType": "bytes32",
                  "name": "r",
                  "type": "bytes32"
                },
                {
                  "internalType": "bytes32",
                  "name": "s",
                  "type": "bytes32"
                }
              ],
              "internalType": "struct IRate.ServiceData[]",
              "name": "data",
              "type": "tuple[]"
            }
          ],
          "internalType": "struct IRate.ExecuteServiceData[]",
          "name": "_executeServiceData",
          "type": "tuple[]"
        }
      ],
      "name": "addServiceBatch",
      "outputs": [],
      "stateMutability": "nonpayable",
      "type": "function"
    },
    {
      "inputs": [
        {
          "internalType": "address",
          "name": "",
          "type": "address"
        },
        {
          "internalType": "address",
          "name": "",
          "type": "address"
        },
        {
          "internalType": "address",
          "name": "",
          "type": "address"
        }
      ],
      "name": "feedbackFeedbacks",
      "outputs": [
        {
          "internalType": "string",
          "name": "info",
          "type": "string"
        },
        {
          "internalType": "uint256",
          "name": "score",
          "type": "uint256"
        },
        {
          "internalType": "bool",
          "name": "exists",
          "type": "bool"
        }
      ],
      "stateMutability": "view",
      "type": "function"
    },
    {
      "inputs": [
        {
          "internalType": "address",
          "name": "",
          "type": "address"
        }
      ],
      "name": "feedbackNonce",
      "outputs": [
        {
          "internalType": "uint256",
          "name": "",
          "type": "uint256"
        }
      ],
      "stateMutability": "view",
      "type": "function"
    },
    {
      "inputs": [
        {
          "internalType": "address",
          "name": "",
          "type": "address"
        }
      ],
      "name": "feedbackOnfeedbackNonce",
      "outputs": [
        {
          "internalType": "uint256",
          "name": "",
          "type": "uint256"
        }
      ],
      "stateMutability": "view",
      "type": "function"
    },
    {
      "inputs": [
        {
          "internalType": "address",
          "name": "",
          "type": "address"
        },
        {
          "internalType": "address",
          "name": "",
          "type": "address"
        }
      ],
      "name": "serviceFeedbacks",
      "outputs": [
        {
          "internalType": "string",
          "name": "info",
          "type": "string"
        },
        {
          "internalType": "uint256",
          "name": "score",
          "type": "uint256"
        },
        {
          "internalType": "bool",
          "name": "exists",
          "type": "bool"
        }
      ],
      "stateMutability": "view",
      "type": "function"
    },
    {
      "inputs": [
        {
          "internalType": "address",
          "name": "",
          "type": "address"
        }
      ],
      "name": "serviceNonce",
      "outputs": [
        {
          "internalType": "uint256",
          "name": "",
          "type": "uint256"
        }
      ],
      "stateMutability": "view",
      "type": "function"
    },
    {
      "inputs": [
        {
          "internalType": "address",
          "name": "",
          "type": "address"
        }
      ],
      "name": "services",
      "outputs": [
        {
          "internalType": "address",
          "name": "submitter",
          "type": "address"
        },
        {
          "internalType": "string",
          "name": "info",
          "type": "string"
        },
        {
          "internalType": "bool",
          "name": "exists",
          "type": "bool"
        }
      ],
      "stateMutability": "view",
      "type": "function"
    },
    {
      "inputs": [
        {
          "internalType": "uint256",
          "name": "_nonce",
          "type": "uint256"
        },
        {
          "internalType": "uint256",
          "name": "_score",
          "type": "uint256"
        },
        {
          "internalType": "address",
          "name": "_prevSubmitter",
          "type": "address"
        },
        {
          "internalType": "address",
          "name": "_submitter",
          "type": "address"
        },
        {
          "internalType": "address",
          "name": "_service",
          "type": "address"
        },
        {
          "internalType": "string",
          "name": "_infoHash",
          "type": "string"
        },
        {
          "internalType": "uint8",
          "name": "_v",
          "type": "uint8"
        },
        {
          "internalType": "bytes32",
          "name": "_r",
          "type": "bytes32"
        },
        {
          "internalType": "bytes32",
          "name": "_s",
          "type": "bytes32"
        }
      ],
      "name": "submitFeedbackToFeedback",
      "outputs": [],
      "stateMutability": "nonpayable",
      "type": "function"
    },
    {
      "inputs": [
        {
          "components": [
            {
              "internalType": "address",
              "name": "submitter",
              "type": "address"
            },
            {
              "components": [
                {
                  "internalType": "uint256",
                  "name": "nonce",
                  "type": "uint256"
                },
                {
                  "internalType": "uint256",
                  "name": "score",
                  "type": "uint256"
                },
                {
                  "internalType": "address",
                  "name": "prevSubmitter",
                  "type": "address"
                },
                {
                  "internalType": "address",
                  "name": "service",
                  "type": "address"
                },
                {
                  "internalType": "string",
                  "name": "infoHash",
                  "type": "string"
                },
                {
                  "internalType": "uint8",
                  "name": "v",
                  "type": "uint8"
                },
                {
                  "internalType": "bytes32",
                  "name": "r",
                  "type": "bytes32"
                },
                {
                  "internalType": "bytes32",
                  "name": "s",
                  "type": "bytes32"
                }
              ],
              "internalType": "struct IRate.FeedbackToFeedbackData[]",
              "name": "data",
              "type": "tuple[]"
            }
          ],
          "internalType": "struct IRate.ExecuteFeedbackToFeedbackData[]",
          "name": "_executeFeedbackToFeedbackData",
          "type": "tuple[]"
        }
      ],
      "name": "submitFeedbackToFeedbackBatch",
      "outputs": [],
      "stateMutability": "nonpayable",
      "type": "function"
    },
    {
      "inputs": [
        {
          "internalType": "uint256",
          "name": "_nonce",
          "type": "uint256"
        },
        {
          "internalType": "uint256",
          "name": "_score",
          "type": "uint256"
        },
        {
          "internalType": "address",
          "name": "_submitter",
          "type": "address"
        },
        {
          "internalType": "address",
          "name": "_service",
          "type": "address"
        },
        {
          "internalType": "string",
          "name": "_infoHash",
          "type": "string"
        },
        {
          "internalType": "uint8",
          "name": "_v",
          "type": "uint8"
        },
        {
          "internalType": "bytes32",
          "name": "_r",
          "type": "bytes32"
        },
        {
          "internalType": "bytes32",
          "name": "_s",
          "type": "bytes32"
        }
      ],
      "name": "submitFeedbackToService",
      "outputs": [],
      "stateMutability": "nonpayable",
      "type": "function"
    },
    {
      "inputs": [
        {
          "components": [
            {
              "internalType": "address",
              "name": "submitter",
              "type": "address"
            },
            {
              "components": [
                {
                  "internalType": "uint256",
                  "name": "nonce",
                  "type": "uint256"
                },
                {
                  "internalType": "uint256",
                  "name": "score",
                  "type": "uint256"
                },
                {
                  "internalType": "address",
                  "name": "service",
                  "type": "address"
                },
                {
                  "internalType": "string",
                  "name": "infoHash",
                  "type": "string"
                },
                {
                  "internalType": "uint8",
                  "name": "v",
                  "type": "uint8"
                },
                {
                  "internalType": "bytes32",
                  "name": "r",
                  "type": "bytes32"
                },
                {
                  "internalType": "bytes32",
                  "name": "s",
                  "type": "bytes32"
                }
              ],
              "internalType": "struct IRate.FeedbackToServiceData[]",
              "name": "data",
              "type": "tuple[]"
            }
          ],
          "internalType": "struct IRate.ExecuteFeedbackToServiceData[]",
          "name": "_executeFeedbackToServiceData",
          "type": "tuple[]"
        }
      ],
      "name": "submitFeedbackToServiceBatch",
      "outputs": [],
      "stateMutability": "nonpayable",
      "type": "function"
    }
  ],
  "bytecode": "0x608060405234801561001057600080fd5b50604051620022b8380380620022b883398101604081905261003191610056565b600080546001600160a01b0319166001600160a01b0392909216919091179055610086565b60006020828403121561006857600080fd5b81516001600160a01b038116811461007f57600080fd5b9392505050565b61222280620000966000396000f3fe608060405234801561001057600080fd5b50600436106101005760003560e01c8063a942263b11610097578063d6762c4a11610066578063d6762c4a14610272578063e8e3b1721461029d578063f20c81bd146102b0578063feb6e323146102c357600080fd5b8063a942263b14610212578063b66b129314610239578063bc759ff71461024c578063c121fa0d1461025f57600080fd5b806371bd8921116100d357806371bd892114610191578063807aaab8146101b85780638b7b26a6146101d8578063a1513822146101ff57600080fd5b806338342401146101055780634cc81a4b146101385780635c15c5cd1461015a5780636d966d011461016f575b600080fd5b6101256101133660046115fa565b60066020526000908152604090205481565b6040519081526020015b60405180910390f35b61014b61014636600461161c565b6102e3565b60405161012f93929190611695565b61016d610168366004611814565b61039c565b005b61018261017d3660046115fa565b6105f1565b60405161012f939291906118a9565b6101257fdbe8137d6afc1c0b09c3830698163083baf8a90f0c8e5ac7e86a587c64f811b081565b6101256101c63660046115fa565b60046020526000908152604090205481565b6101257fbc28f40b317a71b2f8601551e70b74f32c6bb47e21efec67eeb0922a0776e15481565b61016d61020d36600461192a565b6106aa565b6101257ff4b99a89f781cf9252e7729437fe88e697149f313367851ea389c1043dcedc2e81565b61016d61024736600461196b565b610965565b61016d61025a36600461192a565b610b81565b61016d61026d36600461192a565b610e7d565b600054610285906001600160a01b031681565b6040516001600160a01b03909116815260200161012f565b61014b6102ab3660046119f6565b611177565b61016d6102be366004611a39565b6111a3565b6101256102d13660046115fa565b60056020526000908152604090205481565b600260209081526000928352604080842090915290825290208054819061030990611adf565b80601f016020809104026020016040519081016040528092919081815260200182805461033590611adf565b80156103825780601f1061035757610100808354040283529160200191610382565b820191906000526020600020905b81548152906001019060200180831161036557829003601f168201915b50505050600183015460029093015491929160ff16905083565b60005460405163d78b27b160e01b81523360048201819052916001600160a01b03169063d78b27b190602401602060405180830381865afa1580156103e5573d6000803e3d6000fd5b505050506040513d601f19601f820116820180604052508101906104099190611b19565b61042e5760405162461bcd60e51b815260040161042590611b3b565b60405180910390fd5b6001600160a01b03871660009081526005602052604090205489116104655760405162461bcd60e51b815260040161042590611b6a565b606588108015610473575060015b6104b45760405162461bcd60e51b815260206004820152601260248201527173636f7265206f7574206f662072616e676560701b6044820152606401610425565b61051e6104bf611411565b7ff4b99a89f781cf9252e7729437fe88e697149f313367851ea389c1043dcedc2e8b8b89805190602001208b6040516020016104ff959493929190611b96565b60405160208183030381529060405280519060200120898787876114df565b6001600160a01b038088166000908152600260208181526040808420948b1684529390529190209081015460ff16156105695760405162461bcd60e51b815260040161042590611bc2565b806105748782611c48565b5060018082018a905560028201805460ff191690911790556001600160a01b038816600090815260056020526040908190208b9055517f5e715505ac3a47d7d6b53a91944d68ddacf5dfbd45eaef0b61587c4cd302874b906105dd9089908b908a908e90611d07565b60405180910390a150505050505050505050565b6001602081905260009182526040909120805491810180546001600160a01b039093169261061e90611adf565b80601f016020809104026020016040519081016040528092919081815260200182805461064a90611adf565b80156106975780601f1061066c57610100808354040283529160200191610697565b820191906000526020600020905b81548152906001019060200180831161067a57829003601f168201915b5050506002909301549192505060ff1683565b60005460405163d78b27b160e01b81523360048201819052916001600160a01b03169063d78b27b190602401602060405180830381865afa1580156106f3573d6000803e3d6000fd5b505050506040513d601f19601f820116820180604052508101906107179190611b19565b6107335760405162461bcd60e51b815260040161042590611b3b565b600061073d611411565b905060005b8381101561095e57600085858381811061075e5761075e611d44565b90506020028101906107709190611d5a565b61077990611d9d565b80516001600160a01b03166000908152600560205260408120549192505b82602001515181101561093b576000836020015182815181106107bc576107bc611d44565b60200260200101519050610849867ff4b99a89f781cf9252e7729437fe88e697149f313367851ea389c1043dcedc2e83600001518460200151856060015180519060200120866040015160405160200161081a959493929190611b96565b60405160208183030381529060405280519060200120866000015184608001518560a001518660c001516114df565b805183106108695760405162461bcd60e51b815260040161042590611b6a565b805184516001600160a01b039081166000908152600260208181526040808420818801519095168452939052919020908101549194509060ff16156108c05760405162461bcd60e51b815260040161042590611bc2565b606082015181906108d19082611c48565b506020820151600180830182905560028301805460ff191690911790556040808401518751606086015192517f5e715505ac3a47d7d6b53a91944d68ddacf5dfbd45eaef0b61587c4cd302874b946109299491611d07565b60405180910390a15050600101610797565b5090516001600160a01b0316600090815260056020526040902055600101610742565b5050505050565b60005460405163d78b27b160e01b81523360048201819052916001600160a01b03169063d78b27b190602401602060405180830381865afa1580156109ae573d6000803e3d6000fd5b505050506040513d601f19601f820116820180604052508101906109d29190611b19565b6109ee5760405162461bcd60e51b815260040161042590611b3b565b6001600160a01b0387166000908152600460205260409020548811610a255760405162461bcd60e51b815260040161042590611b6a565b610a88610a30611411565b8651602080890191909120604080517fdbe8137d6afc1c0b09c3830698163083baf8a90f0c8e5ac7e86a587c64f811b09381019390935282018c905260608201526001600160a01b038916608082015260a0016104ff565b6001600160a01b0386166000908152600160205260409020600281015460ff1615610af05760405162461bcd60e51b81526020600482015260186024820152771cd95c9d9a58d948185b1c9958591e481cdd589b5a5d195960421b6044820152606401610425565b60018101610afe8782611c48565b5080546001600160a01b0319166001600160a01b038916908117825560028201805460ff19166001179055600090815260046020526040908190208a9055517f1e4931c3b7f29bcba927c612362300943977993c3090998203a50bbede02844690610b6e9089908b908a90611ef0565b60405180910390a1505050505050505050565b60005460405163d78b27b160e01b81523360048201819052916001600160a01b03169063d78b27b190602401602060405180830381865afa158015610bca573d6000803e3d6000fd5b505050506040513d601f19601f82011682018060405250810190610bee9190611b19565b610c0a5760405162461bcd60e51b815260040161042590611b3b565b6000610c14611411565b905060005b8381101561095e576000858583818110610c3557610c35611d44565b9050602002810190610c479190611d5a565b610c5090611f25565b80516001600160a01b03166000908152600660205260408120549192505b826020015151811015610e5a57600083602001518281518110610c9357610c93611d44565b60200260200101519050610d55867fbc28f40b317a71b2f8601551e70b74f32c6bb47e21efec67eeb0922a0776e1548360000151846020015185608001518051906020012086604001518760600151604051602001610d26969594939291909586526020860194909452604085019290925260608401526001600160a01b0390811660808401521660a082015260c00190565b6040516020818303038152906040528051906020012086600001518460a001518560c001518660e001516114df565b80518310610d755760405162461bcd60e51b815260040161042590611b6a565b805184516001600160a01b03908116600090815260036020908152604080832081870151851684528252808320606087015190941683529290522060028101549194509060ff1615610dd95760405162461bcd60e51b815260040161042590611bc2565b60808201518190610dea9082611c48565b506020820151600180830182905560028301805460ff1916909117905560608301516040808501518851608087015192517f9e81cbf7451df3d98fd65cc9d55efe67e38c725b8dbb1885d2463190b2c0511295610e48959491612075565b60405180910390a15050600101610c6e565b5090516001600160a01b0316600090815260066020526040902055600101610c19565b60005460405163d78b27b160e01b81523360048201819052916001600160a01b03169063d78b27b190602401602060405180830381865afa158015610ec6573d6000803e3d6000fd5b505050506040513d601f19601f82011682018060405250810190610eea9190611b19565b610f065760405162461bcd60e51b815260040161042590611b3b565b6000610f10611411565b905060005b8381101561095e576000858583818110610f3157610f31611d44565b9050602002810190610f439190611d5a565b610f4c906120bb565b80516001600160a01b03166000908152600460205260408120549192505b82602001515181101561115457600083602001518281518110610f8f57610f8f611d44565b60200260200101519050611035867fdbe8137d6afc1c0b09c3830698163083baf8a90f0c8e5ac7e86a587c64f811b0836000015184604001518051906020012085602001516040516020016110069493929190938452602084019290925260408301526001600160a01b0316606082015260800190565b604051602081830303815290604052805190602001208660000151846060015185608001518660a001516114df565b805183106110555760405162461bcd60e51b815260040161042590611b6a565b80516020808301516001600160a01b0316600090815260019091526040902060028101549194509060ff16156110c85760405162461bcd60e51b81526020600482015260186024820152771cd95c9d9a58d948185b1c9958591e481cdd589b5a5d195960421b6044820152606401610425565b604082015160018201906110dc9082611c48565b50845181546001600160a01b0319166001600160a01b03821617825560028201805460ff19166001179055602083015160408085015190517f1e4931c3b7f29bcba927c612362300943977993c3090998203a50bbede0284469361114293929091611ef0565b60405180910390a15050600101610f6a565b5090516001600160a01b0316600090815260046020526040902055600101610f15565b600360209081526000938452604080852082529284528284209052825290208054819061030990611adf565b60005460405163d78b27b160e01b81523360048201819052916001600160a01b03169063d78b27b190602401602060405180830381865afa1580156111ec573d6000803e3d6000fd5b505050506040513d601f19601f820116820180604052508101906112109190611b19565b61122c5760405162461bcd60e51b815260040161042590611b3b565b6001600160a01b0387166000908152600660205260409020548a116112635760405162461bcd60e51b815260040161042590611b6a565b606589108015611271575060015b6112b25760405162461bcd60e51b815260206004820152601260248201527173636f7265206f7574206f662072616e676560701b6044820152606401610425565b6113246112bd611411565b8651602080890191909120604080517fbc28f40b317a71b2f8601551e70b74f32c6bb47e21efec67eeb0922a0776e1549381019390935282018e9052606082018d905260808201526001600160a01b03808c1660a0830152891660c082015260e0016104ff565b6001600160a01b0380881660009081526003602090815260408083208c851684528252808320938a16835292905220600281015460ff16156113785760405162461bcd60e51b815260040161042590611bc2565b806113838782611c48565b5089816001018190555060018160020160006101000a81548160ff0219169083151502179055507f9e81cbf7451df3d98fd65cc9d55efe67e38c725b8dbb1885d2463190b2c05112878a8a898e6040516113e1959493929190612075565b60405180910390a15050506001600160a01b03909416600090815260066020526040902096909655505050505050565b604080518082018252600f81526e11195c985d1948141c9bdd1bd8dbdb608a1b6020918201528151808301835260018152603160f81b9082015290516000916114c4917f8b73c3c69bb8fe3d512ecc4cf759cc79239f7b179b0ffacaa9a75d522b39400f917f2b03a062a60276a6d883a9d1510648aada0e2b86b3b6f9b048caee67c827cde0917fc89efdaa54c0f20c7adf612882df0950f5a951637e0307cdcb4c672f298b8bc6914691309101611b96565b60405160208183030381529060405280519060200120905090565b6040805161190160f01b60208083019190915260228201899052604280830189905283518084039091018152606290920190925280519101206000906040805160008082526020820180845284905260ff88169282019290925260608101869052608081018590529192509060019060a0016020604051602081039080840390855afa158015611573573d6000803e3d6000fd5b505050602060405103519050856001600160a01b0316816001600160a01b0316146115d45760405162461bcd60e51b8152602060048201526011602482015270696e76616c6964207369676e617475726560781b6044820152606401610425565b5050505050505050565b80356001600160a01b03811681146115f557600080fd5b919050565b60006020828403121561160c57600080fd5b611615826115de565b9392505050565b6000806040838503121561162f57600080fd5b611638836115de565b9150611646602084016115de565b90509250929050565b6000815180845260005b8181101561167557602081850181015186830182015201611659565b506000602082860101526020601f19601f83011685010191505092915050565b6060815260006116a8606083018661164f565b602083019490945250901515604090910152919050565b634e487b7160e01b600052604160045260246000fd5b604080519081016001600160401b03811182821017156116f7576116f76116bf565b60405290565b60405160e081016001600160401b03811182821017156116f7576116f76116bf565b60405161010081016001600160401b03811182821017156116f7576116f76116bf565b60405160c081016001600160401b03811182821017156116f7576116f76116bf565b604051601f8201601f191681016001600160401b038111828210171561178c5761178c6116bf565b604052919050565b600082601f8301126117a557600080fd5b81356001600160401b038111156117be576117be6116bf565b6117d1601f8201601f1916602001611764565b8181528460208386010111156117e657600080fd5b816020850160208301376000918101602001919091529392505050565b803560ff811681146115f557600080fd5b600080600080600080600080610100898b03121561183157600080fd5b883597506020890135965061184860408a016115de565b955061185660608a016115de565b945060808901356001600160401b0381111561187157600080fd5b61187d8b828c01611794565b94505061188c60a08a01611803565b925060c0890135915060e089013590509295985092959890939650565b6001600160a01b03841681526060602082018190526000906118cd9083018561164f565b90508215156040830152949350505050565b60008083601f8401126118f157600080fd5b5081356001600160401b0381111561190857600080fd5b6020830191508360208260051b850101111561192357600080fd5b9250929050565b6000806020838503121561193d57600080fd5b82356001600160401b0381111561195357600080fd5b61195f858286016118df565b90969095509350505050565b600080600080600080600060e0888a03121561198657600080fd5b87359650611996602089016115de565b95506119a4604089016115de565b945060608801356001600160401b038111156119bf57600080fd5b6119cb8a828b01611794565b9450506119da60808901611803565b925060a0880135915060c0880135905092959891949750929550565b600080600060608486031215611a0b57600080fd5b611a14846115de565b9250611a22602085016115de565b9150611a30604085016115de565b90509250925092565b60008060008060008060008060006101208a8c031215611a5857600080fd5b8935985060208a01359750611a6f60408b016115de565b9650611a7d60608b016115de565b9550611a8b60808b016115de565b945060a08a01356001600160401b03811115611aa657600080fd5b611ab28c828d01611794565b945050611ac160c08b01611803565b925060e08a013591506101008a013590509295985092959850929598565b600181811c90821680611af357607f821691505b602082108103611b1357634e487b7160e01b600052602260045260246000fd5b50919050565b600060208284031215611b2b57600080fd5b8151801515811461161557600080fd5b60208082526015908201527463616c6c6572206973206e6f74207363726970742160581b604082015260600190565b6020808252601290820152711b9bdb98d9481a5cc81a5b98dbdc9c9958dd60721b604082015260600190565b9485526020850193909352604084019190915260608301526001600160a01b0316608082015260a00190565b60208082526019908201527f666565646261636b20616c7265616479207375626d6974656400000000000000604082015260600190565b601f821115611c4357600081815260208120601f850160051c81016020861015611c205750805b601f850160051c820191505b81811015611c3f57828155600101611c2c565b5050505b505050565b81516001600160401b03811115611c6157611c616116bf565b611c7581611c6f8454611adf565b84611bf9565b602080601f831160018114611caa5760008415611c925750858301515b600019600386901b1c1916600185901b178555611c3f565b600085815260208120601f198616915b82811015611cd957888601518255948401946001909101908401611cba565b5085821015611cf75787850151600019600388901b60f8161c191681555b5050505050600190811b01905550565b6001600160a01b03858116825284166020820152608060408201819052600090611d339083018561164f565b905082606083015295945050505050565b634e487b7160e01b600052603260045260246000fd5b60008235603e19833603018112611d7057600080fd5b9190910192915050565b60006001600160401b03821115611d9357611d936116bf565b5060051b60200190565b60006040808336031215611db057600080fd5b611db86116d5565b611dc1846115de565b81526020808501356001600160401b0380821115611dde57600080fd5b9086019036601f830112611df157600080fd5b8135611e04611dff82611d7a565b611764565b81815260059190911b83018401908481019036831115611e2357600080fd5b8585015b83811015611edc57803585811115611e3f5760008081fd5b860160e036829003601f1901811315611e585760008081fd5b611e606116fd565b8983013581528b8301358a8201526060611e7b8185016115de565b8d8301526080808501358a811115611e935760008081fd5b611ea1368e83890101611794565b838501525060a09150611eb5828601611803565b9083015260c084810135918301919091529190920135908201528352918601918601611e27565b509486019490945250929695505050505050565b6001600160a01b03848116825283166020820152606060408201819052600090611f1c9083018461164f565b95945050505050565b60006040808336031215611f3857600080fd5b611f406116d5565b611f49846115de565b81526020808501356001600160401b0380821115611f6657600080fd5b9086019036601f830112611f7957600080fd5b8135611f87611dff82611d7a565b81815260059190911b83018401908481019036831115611fa657600080fd5b8585015b83811015611edc57803585811115611fc25760008081fd5b860161010036829003601f1901811315611fdc5760008081fd5b611fe461171f565b8983013581528b8301358a8201526060611fff8185016115de565b8d83015260806120108186016115de565b8284015260a09150818501358a81111561202a5760008081fd5b612038368e83890101611794565b82850152505060c061204b818601611803565b9183019190915260e084810135918301919091529190920135908201528352918601918601611faa565b6001600160a01b03868116825285811660208301528416604082015260a0606082018190526000906120a99083018561164f565b90508260808301529695505050505050565b600060408083360312156120ce57600080fd5b6120d66116d5565b6120df846115de565b81526020808501356001600160401b03808211156120fc57600080fd5b9086019036601f83011261210f57600080fd5b813561211d611dff82611d7a565b81815260059190911b8301840190848101903683111561213c57600080fd5b8585015b83811015611edc578035858111156121585760008081fd5b860160c036829003601f19018113156121715760008081fd5b612179611742565b89830135815261218a8c84016115de565b8a820152606080840135898111156121a25760008081fd5b6121b0368d83880101611794565b8e8401525060806121c2818601611803565b9183019190915260a08481013591830191909152919092013590820152835291860191860161214056fea26469706673582212204f30c5b6063968bc4e74c4e9b0021d9a2f488e020bb58a198ac599417dd6944264736f6c63430008140033",
  "linkReferences": {},
  "deployedLinkReferences": {}
}